{
  "contractName": "Registation",
  "abi": [
    {
      "constant": true,
      "inputs": [
        {
          "internalType": "uint256",
          "name": "",
          "type": "uint256"
        }
      ],
      "name": "students",
      "outputs": [
        {
          "internalType": "uint32",
          "name": "id",
          "type": "uint32"
        },
        {
          "internalType": "bytes",
          "name": "name",
          "type": "bytes"
        },
        {
          "internalType": "uint16",
          "name": "number",
          "type": "uint16"
        },
        {
          "internalType": "bytes",
          "name": "university",
          "type": "bytes"
        }
      ],
      "payable": false,
      "stateMutability": "view",
      "type": "function"
    },
    {
      "constant": false,
      "inputs": [
        {
          "internalType": "string",
          "name": "_name",
          "type": "string"
        },
        {
          "internalType": "uint32",
          "name": "_number",
          "type": "uint32"
        },
        {
          "internalType": "string",
          "name": "_university",
          "type": "string"
        }
      ],
      "name": "RegisterInfo",
      "outputs": [],
      "payable": false,
      "stateMutability": "nonpayable",
      "type": "function"
    },
    {
      "constant": true,
      "inputs": [
        {
          "internalType": "string",
          "name": "_name",
          "type": "string"
        },
        {
          "internalType": "uint256",
          "name": "_number",
          "type": "uint256"
        }
      ],
      "name": "getInfo",
      "outputs": [
        {
          "internalType": "bytes32",
          "name": "",
          "type": "bytes32"
        }
      ],
      "payable": false,
      "stateMutability": "view",
      "type": "function"
    }
  ],
  "bytecode": "0x60806040526000805534801561001457600080fd5b506108b1806100246000396000f3fe608060405234801561001057600080fd5b50600436106100415760003560e01c806306ead22e1461004657806318c968d51461017b578063c3d07f4014610254575b600080fd5b6100726004803603602081101561005c57600080fd5b81019080803590602001909291905050506103b6565b604051808563ffffffff1663ffffffff168152602001806020018461ffff1661ffff16815260200180602001838103835286818151815260200191508051906020019080838360005b838110156100d65780820151818401526020810190506100bb565b50505050905090810190601f1680156101035780820380516001836020036101000a031916815260200191505b50838103825284818151815260200191508051906020019080838360005b8381101561013c578082015181840152602081019050610121565b50505050905090810190601f1680156101695780820380516001836020036101000a031916815260200191505b50965050505050505060405180910390f35b61023e6004803603604081101561019157600080fd5b81019080803590602001906401000000008111156101ae57600080fd5b8201836020820111156101c057600080fd5b803590602001918460018302840111640100000000831117156101e257600080fd5b91908080601f016020809104026020016040519081016040528093929190818152602001838380828437600081840152601f19601f82011690508083019250505050505050919291929080359060200190929190505050610541565b6040518082815260200191505060405180910390f35b6103b46004803603606081101561026a57600080fd5b810190808035906020019064010000000081111561028757600080fd5b82018360208201111561029957600080fd5b803590602001918460018302840111640100000000831117156102bb57600080fd5b91908080601f016020809104026020016040519081016040528093929190818152602001838380828437600081840152601f19601f820116905080830192505050505050509192919290803563ffffffff1690602001909291908035906020019064010000000081111561032e57600080fd5b82018360208201111561034057600080fd5b8035906020019184600183028401116401000000008311171561036257600080fd5b91908080601f016020809104026020016040519081016040528093929190818152602001838380828437600081840152601f19601f8201169050808301925050505050505091929192905050506106dd565b005b600181815481106103c357fe5b90600052602060002090600402016000915090508060000160009054906101000a900463ffffffff1690806001018054600181600116156101000203166002900480601f0160208091040260200160405190810160405280929190818152602001828054600181600116156101000203166002900480156104855780601f1061045a57610100808354040283529160200191610485565b820191906000526020600020905b81548152906001019060200180831161046857829003601f168201915b5050505050908060020160009054906101000a900461ffff1690806003018054600181600116156101000203166002900480601f0160208091040260200160405190810160405280929190818152602001828054600181600116156101000203166002900480156105375780601f1061050c57610100808354040283529160200191610537565b820191906000526020600020905b81548152906001019060200180831161051a57829003601f168201915b5050505050905084565b600080600090505b6000548110156106d557836040516020018082805190602001908083835b6020831061058a5780518252602082019150602081019050602083039250610567565b6001836020036101000a038019825116818451168082178552505050505050905001915050604051602081830303815290604052805190602001206001808301815481106105d457fe5b906000526020600020906004020160010160405160200180828054600181600116156101000203166002900480156106435780601f10610621576101008083540402835291820191610643565b820191906000526020600020905b81548152906001019060200180831161062f575b50509150506040516020818303038152906040528051906020012014156106c8578260018083018154811061067457fe5b906000526020600020906004020160020160009054906101000a900461ffff1661ffff1614156106c7577f686f6765000000000000000000000000000000000000000000000000000000009150506106d7565b5b8080600101915050610549565b505b92915050565b6001604051806080016040528060016000540163ffffffff1681526020018581526020018461ffff168152602001838152509080600181540180825580915050906001820390600052602060002090600402016000909192909190915060008201518160000160006101000a81548163ffffffff021916908363ffffffff160217905550602082015181600101908051906020019061077d9291906107d7565b5060408201518160020160006101000a81548161ffff021916908361ffff16021790555060608201518160030190805190602001906107bd9291906107d7565b505050506000808154809291906001019190505550505050565b828054600181600116156101000203166002900490600052602060002090601f016020900481019282601f1061081857805160ff1916838001178555610846565b82800160010185558215610846579182015b8281111561084557825182559160200191906001019061082a565b5b5090506108539190610857565b5090565b61087991905b8082111561087557600081600090555060010161085d565b5090565b9056fea265627a7a723158209858263a2ea606e12dc82bc4931c403593d1bf1dda5044ada90037e9f7eeba1764736f6c63430005100032",
  "source": "pragma solidity >=0.4.22 <0.7.0;\n\ncontract Registation {\n\n  uint num = 0;\n\n  struct Student {\n    uint32 id;\n    bytes name;\n    uint16 number;\n    // uint8 birthday;\n    bytes university;\n    // bytes32 major;\n  }\n  \n  Student[] public students;\n  // mapping(bytes32 => Student) public students;\n  \n  // Student info 登録\n  function RegisterInfo(\n      string memory _name,\n      uint32 _number,\n      string memory _university) public {\n        students.push(Student({\n            id: uint32(num+1),\n            name: bytes(_name),\n            number: uint16(_number),\n            university: bytes(_university)\n        }));\n        num++;\n  }\n\n  function getInfo(\n    string memory _name,\n    uint _number) public view returns(bytes32){\n    for (uint i=0; i<num; i++) {\n        if (keccak256(abi.encodePacked(students[i+1].name)) == keccak256(abi.encodePacked(_name))){\n            if (uint(students[i+1].number) == uint(_number)) {\n                return \"hoge\";\n            }\n        }\n    }\n  }\n}",
  "sourcePath": "/Users/hatake/Documents/blockchain/bc_student_truffle/contracts/Registration.sol",
  "compiler": {
    "name": "solc",
    "version": "0.5.16+commit.9c3226ce.Emscripten.clang"
  },
  "schemaVersion": "3.2.3",
  "updatedAt": "2020-08-24T03:20:01.187Z",
  "devdoc": {
    "methods": {}
  },
  "userdoc": {
    "methods": {}
  }
}